:0C09B000C0F9A4B0999282F88090FFBFBB
:1009920002170000021100110215001402130012C6
:0D09A20008080A0A0A0A0A0A0A0A011000D7
:1008EB00758901758CF8758AF8D2A9D2AFD28CE5CF
:1008FB0012643C4511700CF511F5120516E51670D6
:10090B00020515E516643C4515700CF515F5160535
:10091B0014E51470020513E514641845137004F5FF
:10092B0013F51475080A75090A750A0A750B01E4A3
:0D093B00F50C750D02750E03750F0680B2E8
:03000B0002088C5C
:10088C00C0E0C0F0C083C082C0D075D000C000C032
:10089C0001C002C003C004C005C006C007758CF8B7
:1008AC00758A300518E51870020517B4F413E517AE
:1008BC00B4010E7517007518000512E512700205CB
:1008CC0011120948D007D006D005D004D003D002AD
:0F08DC00D001D000D0D0D082D083D0F0D0E03285
:100948007580FFE5A0541F44E0F5A053A01FAF1029
:100958007401A807088002C333D8FCF580E5A054C9
:100968001F44C0F5A053A01F74082510F8E690098D
:10097800B093F580E5A0541F44E0F5A053A01F05EF
:0A09880010E510B40803E4F5102296
:03000000020800F3
:0C080000787FE4F6D8FD758118020847E7
:10080C000208EBE493A3F8E493A34003F68001F20F
:10081C0008DFF48029E493A3F85407240CC8C333ED
:10082C00C4540F4420C8834004F456800146F6DFBC
:10083C00E4800B0102040810204080900992E47EB1
:10084C00019360BCA3FF543F30E509541FFEE493B1
:10085C00A360010ECF54C025E060A840B8E493A378
:10086C00FAE493A3F8E493A3C8C582C8CAC583CAA3
:10087C00F0A3C8C582C8CAC583CADFE9DEE780BE5B
:0109AF000047
:00000001FF
